:020000040000FA
:1000000008080020F50000000701000009010000B9
:1000100000000000000000000000000000000000E0
:100020000000000000000000000000000B010000C4
:1000300000000000000000000D0100000F010000A2
:100040001101000011010000110100001101000068
:10005000110100000000000011010000110100006A
:100060001101000011010000110100001101000048
:100070001101000011010000110100001101000038
:100080001101000011010000110100001101000028
:100090001101000011010000110100001101000018
:1000A000110100001101000000000000000000002C
:1000B0000000000000000000000000000000000040
:1000C0000348854600F02CF80048004781020000F4
:1000D00008080020401E00BF00BF00BF00BF00BFD7
:1000E00000BF00BF00BF00BF00BF00BF00BFF1D115
:1000F00070470000074802680F210A430260064863
:10010000804706480047FEE7FEE7FEE7FEE7FEE71A
:10011000FEE700002405004045010000C10000008A
:10012000064C0125064E05E0E36807CC2B430C3C4A
:1001300098471034B442F7D3FFF7C6FFE00300003E
:10014000F003000010B500F065F8002805D007485E
:1001500007494860C8130749886100F03FF8002844
:1001600002D001200449886010BD0000DFFF07C0F5
:1001700000050040006C00400006004002E008C896
:10018000121F08C1002AFAD170477047002001E011
:1001900001C1121F002AFBD17047000010B50020DA
:1001A0000D49086001208107086000BF0A48006807
:1001B0000028FBD01220132108E0012205231B0791
:1001C000072424021B1984001A51401C8842F4D9C8
:1001D00000BF00F0BFF810BD000100400C48008CCB
:1001E000C0B2012812D10A48808C0007000F0028F5
:1001F0000CD10748806AF0210840402806D1044805
:10020000C06A0840002801D1012070470020FCE7A7
:10021000C00F00F01948008CC0B201282CD117483B
:10022000808C0007000F002826D11448806AF02136
:100230000840002806D11148C06A0840002801D1B2
:10024000012070470D48806AF0210840102806D12F
:100250000A48C06A0840002801D10120F1E7074898
:10026000806AF0210840302806D10448C06A08405E
:10027000002801D10120E4E70020E2E7C00F00F0F0
:10028000FFF78CFF3DE01F481F49486000201F49D1
:10029000086001201E49486000BF1C480068002813
:1002A000FBD000201949C86001201949886000BFAF
:1002B0001648C0680028FBD016480068012815D1F0
:1002C00010480078302802D031280ED106E01220E4
:1002D00000F038F8132000F02DF806E0132000F0AD
:1002E00031F8122000F026F800BF00BF00200749B7
:1002F000086101200649086100BF04480069002820
:10030000FBD0C0E7000000200015004000110040B5
:10031000001000400014004001B505E00098401EA8
:1003200000900348FFF7D6FE00980028F6D108BDDC
:10033000E703000001218140014AD16070470000BD
:100340000005005001218140014A91607047000082
:100350000005005010B500201949C86007208860CA
:100360000120086117484862174888621748C86129
:10037000174808620020C862012008630020486115
:1003800014488861022048630846406B8007800F4C
:10039000022804D11048C863104888630BE008485D
:1003A000406B8007800F012805D1FF200449C863F6
:1003B000FF20083088630320FFF7AEFF10BD000068
:1003C00000150040E7C2C3C4C8C7C6C5E7E7E7E7F2
:1003D000C2C2C20001010401FFFF000021100100A0
:1003E000F003000000000020080000007C01000075
:0803F000000000000024F400ED
:04000005000000C136
:00000001FF
