:020000040001F9
:1040000008280020D5400100E7400100E9400100F8
:1040100000000000000000000000000000000000A0
:10402000000000000000000000000000EB40010064
:104030000000000000000000ED400100EF40010022
:10404000F1400100F1400100F1400100F1400100A8
:10405000F140010000000000F1400100F1400100CA
:10406000F1400100F1400100F1400100F140010088
:10407000F1400100F1400100F1400100F140010078
:10408000F1400100F1400100F1400100F140010068
:10409000F1400100F1400100F1400100F140010058
:1040A000F1400100F14001000000000000000000AC
:1040B0000000000000000000000000000000000000
:1040C0000348854600F01CF80048004721420100E3
:1040D00008280020074802680F210A4302600648AA
:1040E000804706480047FEE7FEE7FEE7FEE7FEE7FB
:1040F000FEE700002405004025410100C140010009
:10410000064C0125064E05E0E36807CC2B430C3C2A
:1041100098471034B442F7D3FFF7D6FFC0420100EE
:10412000D042010010B500F045F8002805D007483E
:1041300007494860C8130749886100F01FF8002844
:1041400002D001200449886010BD0000DFFF07C0D5
:1041500000050040006C00400006004002E008C876
:10416000121F08C1002AFAD170477047002001E0F1
:1041700001C1121F002AFBD1704700000C48008CBF
:10418000C0B2012812D10A48808C0007000F002815
:104190000CD10748806AF0210840402806D1044825
:1041A000C06A0840002801D1012070470020FCE7C8
:1041B000C00F00F01948008CC0B201282CD117485C
:1041C000808C0007000F002826D11448806AF02157
:1041D0000840002806D11148C06A0840002801D1D3
:1041E000012070470D48806AF0210840102806D150
:1041F0000A48C06A0840002801D10120F1E70748B9
:10420000806AF0210840302806D10448C06A08407E
:10421000002801D10120E4E70020E2E7C00F00F010
:10422000122000F033F8132000F030F811E01220D3
:1042300000F036F8132000F03BF8642000F00AF894
:10424000132000F02DF8122000F032F8642000F066
:1042500001F8ECE701B515E00098401E009000BFA2
:1042600000BF00BF401E00BF00BF00BF00BF00BFB7
:1042700000BF00BF00BF00BF00BF00BF00BF00D035
:10428000F0E700BF00980028E6D108BD0121052213
:10429000120707231B02D2188300D1507047000079
:1042A00001218140014AD1607047000000050050A3
:1042B00001218140014A91607047000000050050D3
:1042C000D042010000200020040000005C410100F9
:0442D0000024F400D2
:04000005000140C1F5
:00000001FF
