:020000040000FA
:1000000008080020F50000000701000009010000B9
:1000100000000000000000000000000000000000E0
:100020000000000000000000000000000B010000C4
:1000300000000000000000000D0100000F010000A2
:100040001101000011010000110100001101000068
:10005000110100000000000011010000110100006A
:100060001101000011010000110100001101000048
:100070001101000011010000110100001101000038
:100080001101000011010000110100001101000028
:100090001101000011010000110100001101000018
:1000A000110100001101000000000000000000002C
:1000B0000000000000000000000000000000000040
:1000C0000348854600F02CF8004800474102000034
:1000D00008080020401E00BF00BF00BF00BF00BFD7
:1000E00000BF00BF00BF00BF00BF00BF00BFF1D115
:1000F00070470000074802680F210A430260064863
:10010000804706480047FEE7FEE7FEE7FEE7FEE71A
:10011000FEE700002405004045010000C10000008A
:10012000064C0125064E05E0E36807CC2B430C3C4A
:1001300098471034B442F7D3FFF7C6FFC40200005B
:10014000D402000010B500F045F8002805D007489B
:1001500007494860C8130749886100F01FF8002864
:1001600002D001200449886010BD0000DFFF07C0F5
:1001700000050040006C00400006004002E008C896
:10018000121F08C1002AFAD170477047002001E011
:1001900001C1121F002AFBD1704700000C48008CDF
:1001A000C0B2012812D10A48808C0007000F002835
:1001B0000CD10748806AF0210840402806D1044845
:1001C000C06A0840002801D1012070470020FCE7E8
:1001D000C00F00F01948008CC0B201282CD117487C
:1001E000808C0007000F002826D11448806AF02177
:1001F0000840002806D11148C06A0840002801D1F3
:10020000012070470D48806AF0210840102806D16F
:100210000A48C06A0840002801D10120F1E70748D8
:10022000806AF0210840302806D10448C06A08409E
:10023000002801D10120E4E70020E2E7C00F00F030
:10024000122000F025F8132000F022F811E012200F
:1002500000F028F8132000F02DF8642000F00AF8D0
:10026000132000F01FF8122000F024F8642000F0A2
:1002700001F8ECE701B505E00098401E0090034846
:10028000FFF728FF00980028F6D108BDE70300001B
:1002900001210522120707231B02D2188300D15027
:1002A0007047000001218140014AD1607047000081
:1002B0000005005001218140014A91607047000013
:1002C00000050050D40200000000002004000000DF
:0802D0007C0100000024F40091
:04000005000000C136
:00000001FF
