:020000040000FA
:1000000008080020D5000000E7000000E90000001B
:1000100000000000000000000000000000000000E0
:10002000000000000000000000000000EB000000E5
:100030000000000000000000ED000000EF000000E4
:10004000F1000000F1000000F1000000F1000000EC
:10005000F100000000000000F1000000F1000000CD
:10006000F1000000F1000000F1000000F1000000CC
:10007000F1000000F1000000F1000000F1000000BC
:10008000F1000000F1000000F1000000F1000000AC
:10009000F1000000F1000000F1000000F10000009C
:1000A000F1000000F100000000000000000000006E
:1000B0000000000000000000000000000000000040
:1000C0000348854600F01CF8004800472102000064
:1000D00008080020074802680F210A43026006480A
:1000E000804706480047FEE7FEE7FEE7FEE7FEE73B
:1000F000FEE700002405004025010000C1000000CB
:10010000064C0125064E05E0E36807CC2B430C3C6A
:1001100098471034B442F7D3FFF7D6FF78030000B6
:100120008803000010B500F045F8002805D0074806
:1001300007494860C8130749886100F01FF8002884
:1001400002D001200449886010BD0000DFFF07C015
:1001500000050040006C00400006004002E008C8B6
:10016000121F08C1002AFAD170477047002001E031
:1001700001C1121F002AFBD1704700000C48008CFF
:10018000C0B2012812D10A48808C0007000F002855
:100190000CD10748806AF0210840402806D1044865
:1001A000C06A0840002801D1012070470020FCE708
:1001B000C00F00F01948008CC0B201282CD117489C
:1001C000808C0007000F002826D11448806AF02197
:1001D0000840002806D11148C06A0840002801D113
:1001E000012070470D48806AF0210840102806D190
:1001F0000A48C06A0840002801D10120F1E70748F9
:10020000806AF0210840302806D10448C06A0840BE
:10021000002801D10120E4E70020E2E7C00F00F050
:1002200008B500200B2302460921009000F026F8B3
:1002300000F096F80EE000F057F80446204600F073
:1002400063F8712C01D0512C03D100F07DF800BF70
:10025000FEE700BFEFE710B58A0005231B07072460
:1002600024021B1984001A5110BD01210522120716
:1002700007231B02D2188300D1507047F8B50746F8
:100280000C4615461E462046FFF7EFFF002130467C
:10029000FFF7E1FF1048C4604661069800280DD0C2
:1002A0003846FFF7E2FF00212846FFF7D4FF0A484F
:1002B00005618760012008494031C8620748064946
:1002C0004862042008600120054988600860002019
:1002D00004498860F8BD00000025004000E0D70117
:1002E000002000400021004000BF05488068012830
:1002F000FBD100200249886002488069C0B2704783
:1003000000210040002500400549C86100BF0549A3
:10031000C9690129FBD10021024AD161704700005F
:10032000002500400021004030B503460025284646
:100330006D1C1C5C05E02046FFF7E6FF28466D1C9F
:100340001C5C002CF7D130BD10B502A0FFF7ECFF0C
:1003500010BD0000200A0D45786974210A0D0000C7
:1003600010B502A0FFF7E0FF10BD0000200A0D53FA
:10037000746172743A2000008803000000000020BD
:0C038000040000005C0100000024F400F8
:04000005000000C136
:00000001FF
