:020000040000FA
:1000000008080020F50000000701000009010000B9
:1000100000000000000000000000000000000000E0
:100020000000000000000000000000000B010000C4
:1000300000000000000000000D0100000F010000A2
:100040001101000011010000110100001101000068
:10005000110100000000000011010000110100006A
:100060001101000011010000110100001101000048
:100070001101000011010000110100001101000038
:100080001101000011010000110100001101000028
:100090001101000011010000110100001101000018
:1000A000110100001101000000000000000000002C
:1000B0000000000000000000000000000000000040
:1000C0000348854600F02CF8004800477102000004
:1000D00008080020401E00BF00BF00BF00BF00BFD7
:1000E00000BF00BF00BF00BF00BF00BF00BFF1D115
:1000F00070470000074802680F210A430260064863
:10010000804706480047FEE7FEE7FEE7FEE7FEE71A
:10011000FEE700002405004045010000C10000008A
:10012000064C0125064E05E0E36807CC2B430C3C4A
:1001300098471034B442F7D3FFF7C6FF000500001C
:100140001005000010B500F05DF8002805D0074844
:1001500007494860C8130749886100F037F800284C
:1001600002D001200449886010BD0000DFFF07C0F5
:1001700000050040006C00400006004002E008C896
:10018000121F08C1002AFAD170477047002001E011
:1001900001C1121F002AFBD17047000010B50020DA
:1001A0000749086001208107086000BF0448006813
:1001B0000028FBD000F0E4F802480349486010BD75
:1001C0000001004000000020001500400C48008C99
:1001D000C0B2012812D10A48808C0007000F002805
:1001E0000CD10748806AF0210840402806D1044815
:1001F000C06A0840002801D1012070470020FCE7B8
:10020000C00F00F01948008CC0B201282CD117484B
:10021000808C0007000F002826D11448806AF02146
:100220000840002806D11148C06A0840002801D1C2
:10023000012070470D48806AF0210840102806D13F
:100240000A48C06A0840002801D10120F1E70748A8
:10025000806AF0210840302806D10448C06A08406E
:10026000002801D10120E4E70020E2E7C00F00F000
:1002700008B5FFF793FF00200B23024609210090E9
:1002800000F0C4F8122000F069F8132000F066F8BE
:10029000122001218140214AD16000BF00F026F9DF
:1002A0003AE012201D4949680122824051401B4A10
:1002B000516000BF00F0E0F80446204600F0ECF882
:1002C000174804700020174908600120164908608B
:1002D00000BF144800680028FBD001201249886044
:1002E00000201049C86000BF0E48C0680028FBD03D
:1002F00000200C49086101200B49086100BF094832
:1003000000690028FBD0712C01D0512C03D100F0E2
:10031000E3F800BFFEE700BFC3E7000000050050A0
:1003200000000020001100400010004001B505E071
:100330000098401E00900348FFF7CCFE009800286C
:10034000F6D108BDE703000010B58A0005231B079E
:10035000072424021B1984001A5110BD0121052213
:10036000120707231B02D2188300D15070470121C6
:100370000522120707231B02D2188300D1507047B1
:1003800010B500201949C860072088600120086165
:1003900017484862174888621748C86117480862BA
:1003A0000020C86201200863002048611448886169
:1003B000022048630846406B8007800F022804D162
:1003C0001048C863104888630BE00848406B8007FA
:1003D000800F012805D1FF200449C863FF200830A1
:1003E00088630320FFF7A2FF10BD00000015004046
:1003F000E7C2C3C4C8C7C6C5E7E7E7E7C2C2C200D1
:1004000001010401FFFF000021100100F8B50746BB
:100410000C4615461E462046FFF7A9FF0021304630
:10042000FFF792FF1048C4604661069800280DD07F
:100430003846FFF79CFF00212846FFF785FF0A4852
:1004400005618760012008494031C86207480649B4
:100450004862042008600120054988600860002087
:1004600004498860F8BD00000025004000E0D70185
:10047000002000400021004000BF0548806801289E
:10048000FBD100200249886002488069C0B27047F1
:1004900000210040002500400549C86100BF054912
:1004A000C9690129FBD10021024AD16170470000CE
:1004B000002500400021004030B5034600252846B5
:1004C0006D1C1C5C05E02046FFF7E6FF28466D1C0E
:1004D0001C5C002CF7D130BD10B502A0FFF7ECFF7B
:1004E00010BD000045786974210A0D0010B502A006
:1004F000FFF7E2FF10BD0000537461727421000029
:100500001005000000000020080000007C01000031
:08051000000000000024F400CB
:04000005000000C136
:00000001FF
