:020000040000FA
:1000000008080020D5000000E7000000E90000001B
:1000100000000000000000000000000000000000E0
:10002000000000000000000000000000EB000000E5
:100030000000000000000000ED000000EF000000E4
:10004000F1000000F1000000F1000000F1000000EC
:10005000F10000000000000025010000F100000098
:10006000F1000000F1000000F1000000F1000000CC
:10007000F1000000F1000000F1000000F1000000BC
:10008000F1000000F1000000F1000000F1000000AC
:10009000F1000000F1000000F1000000F10000009C
:1000A000F1000000F100000000000000000000006E
:1000B0000000000000000000000000000000000040
:1000C0000348854600F01CF800480047E90200009C
:1000D00008080020074802680F210A43026006480A
:1000E000804706480047FEE7FEE7FEE7FEE7FEE73B
:1000F000FEE700002405004061010000C10000008F
:10010000064C0125064E05E0E36807CC2B430C3C6A
:1001100098471034B442F7D3FFF7D6FFF00200003F
:10012000000300000B480068012812D10A4840680B
:10013000C007C00F00280CD000200649086012201C
:1001400006494968012282405140044A516000BF7B
:1001500000BF704700610040006300400005005090
:1001600010B500F08BF8002805D007480749486013
:10017000C8130749886100F065F8002802D0012003
:100180000449886010BD0000DFFF07C00005004083
:10019000006C00400006004002E008C8121F08C1C1
:1001A000002AFAD170477047002001E001C1121FF8
:1001B000002AFBD17047000030B512200121052232
:1001C000120707231B02D2188300D15000BF102052
:1001D00003218A0005231B07072424021B1984001E
:1001E0001A5100BF122001218140114AD16000BF85
:1001F0000620012181400F4A116000BF002010211C
:1002000003220B0201242343140423430A4C5125E7
:100210002D0164198500635100BF00BF00BF002499
:10022000064B85005C5100BF01200549486030BD88
:100230000005005000E100E0006000400061004067
:10024000006300400C48008CC0B2012812D10A485B
:10025000808C0007000F00280CD10748806AF0212D
:100260000840402806D10448C06A0840002801D14F
:10027000012070470020FCE7C00F00F01948008CF7
:10028000C0B201282CD11748808C0007000F00282D
:1002900026D11448806AF0210840002806D1114870
:1002A000C06A0840002801D1012070470D48806ACB
:1002B000F0210840102806D10A48C06A08400028EA
:1002C00001D10120F1E70748806AF0210840302879
:1002D00006D10448C06A0840002801D10120E4E7A3
:1002E0000020E2E7C00F00F0FFF766FF00BFFEE767
:1002F000000300000000002004000000980100003E
:040300000024F400E1
:04000005000000C136
:00000001FF
