:020000040000FA
:1000000008080020F50000000701000009010000B9
:1000100000000000000000000000000000000000E0
:100020000000000000000000000000000B010000C4
:1000300000000000000000000D0100000F010000A2
:100040001101000011010000110100001101000068
:10005000110100000000000011010000110100006A
:100060001101000011010000110100001101000048
:100070001101000011010000110100001101000038
:100080001101000011010000110100001101000028
:100090001101000011010000110100001101000018
:1000A000110100001101000000000000000000002C
:1000B0000000000000000000000000000000000040
:1000C0000348854600F02CF8004800476502000010
:1000D00008080020401E00BF00BF00BF00BF00BFD7
:1000E00000BF00BF00BF00BF00BF00BF00BFF1D115
:1000F00070470000074802680F210A430260064863
:10010000804706480047FEE7FEE7FEE7FEE7FEE71A
:10011000FEE700002405004045010000C10000008A
:10012000064C0125064E05E0E36807CC2B430C3C4A
:1001300098471034B442F7D3FFF7C6FFC00400005D
:10014000D004000010B500F057F8002805D007488B
:1001500007494860C8130749886100F031F8002852
:1001600002D001200449886010BD0000DFFF07C0F5
:1001700000050040006C00400006004002E008C896
:10018000121F08C1002AFAD170477047002001E011
:1001900001C1121F002AFBD17047000010B50020DA
:1001A0000649086001208107086000BF0348006815
:1001B0000028FBD000F0DAF810BD0000000100407C
:1001C0000C48008CC0B2012812D10A48808C00076C
:1001D000000F00280CD10748806AF0210840402811
:1001E00006D10448C06A0840002801D101207047A8
:1001F0000020FCE7C00F00F01948008CC0B20128B5
:100200002CD11748808C0007000F002826D11448F5
:10021000806AF0210840002806D11148C06A0840D1
:10022000002801D1012070470D48806AF021084064
:10023000102806D10A48C06A0840002801D10120D0
:10024000F1E70748806AF0210840302806D10448C9
:10025000C06A0840002801D10120E4E70020E2E75D
:10026000C00F00F008B5FFF799FF00200B230246EE
:100270000921009000F0C0F8122000F065F813206A
:1002800000F062F81220012181401E4AD16000BFB7
:1002900000F008F934E01C481C49486000201C4963
:1002A000086001201B49486000BF19480068002809
:1002B000FBD000201649C86001201649886000BFA5
:1002C0001348C0680028FBD012200E49496801225B
:1002D000824051400B4A516000BF900000680128E5
:1002E00003D10949087800F0BDF8002008490861E9
:1002F00001200849086100BF054800690028FBD0BB
:10030000C9E7000000050050000000200015004073
:10031000001100400010004001B505E00098401EAB
:1003200000900348FFF7D6FE00980028F6D108BDDC
:10033000E703000010B58A0005231B0707242402E9
:100340001B1984001A5110BD012105221207072331
:100350001B02D2188300D1507047012105221207D9
:1003600007231B02D2188300D150704710B500201C
:100370001949C86007208860012008611748486251
:10038000174888621748C861174808620020C86289
:1003900001200863002048611448886102204863F6
:1003A0000846406B8007800F022804D11048C863BC
:1003B000104888630BE00848406B8007800F0128D5
:1003C00005D1FF200449C863FF200830886303205B
:1003D000FFF7A2FF10BD000000150040E7C2C3C434
:1003E000C8C7C6C5E7E7E7E7C2C2C200010104010A
:1003F000FFFF000021100100F8B507460C46154626
:100400001E462046FFF7A9FF00213046FFF792FF66
:100410001048C4604661069800280DD03846FFF7A2
:100420009CFF00212846FFF785FF0A480561876089
:10043000012008494031C862074806494862042043
:100440000860012005498860086000200449886030
:10045000F8BD00000025004000E0D701002000406A
:10046000002100400549C86100BF0549C96901294B
:10047000FBD10021024AD1617047000000250040F5
:100480000021004030B50346002528466D1C1C5C49
:1004900005E02046FFF7E6FF28466D1C1C5C002C9B
:1004A000F7D130BD10B502A0FFF7ECFF10BD000082
:1004B0000A0D52656369657665720A0D00000000D9
:1004C000D004000000000020080000007C010000B3
:0804D000000000000024F4000C
:04000005000000C136
:00000001FF
