:020000040000FA
:1000000008080020D5000000E7000000E90000001B
:1000100000000000000000000000000000000000E0
:10002000000000000000000000000000EB000000E5
:100030000000000000000000ED000000EF000000E4
:10004000F1000000F1000000F1000000F1000000EC
:10005000F100000000000000F1000000F1000000CD
:100060005D010000F1000000F1000000F10000005F
:10007000F1000000F1000000F1000000F1000000BC
:10008000F1000000F1000000F1000000F1000000AC
:10009000F1000000F1000000F1000000F10000009C
:1000A000F1000000F100000000000000000000006E
:1000B0000000000000000000000000000000000040
:1000C0000348854600F01CF8004800477102000014
:1000D00008080020074802680F210A43026006480A
:1000E000804706480047FEE7FEE7FEE7FEE7FEE73B
:1000F000FEE700002405004025010000C1000000CB
:10010000064C0125064E05E0E36807CC2B430C3C6A
:1001100098471034B442F7D3FFF7D6FFEC02000043
:10012000FC02000010B500F06DF8002805D007486B
:1001300007494860C8130749886100F047F800285C
:1001400002D001200449886010BD0000DFFF07C015
:1001500000050040006C00400006004008480068B0
:1001600000280BD0122007494968012282405140E3
:10017000044A516000BF0020014908607047000038
:10018000408100400005005002E008C8121F08C16D
:10019000002AFAD170477047002001E001C1121F08
:1001A000002AFBD17047000012200121052212070E
:1001B00007231B02D2188300D15000BF00BF81402B
:1001C000014AD16000BF7047000500500C48008C08
:1001D000C0B2012812D10A48808C0007000F002805
:1001E0000CD10748806AF0210840402806D1044815
:1001F000C06A0840002801D1012070470020FCE7B8
:10020000C00F00F01948008CC0B201282CD117484B
:10021000808C0007000F002826D11448806AF02146
:100220000840002806D11148C06A0840002801D1C2
:10023000012070470D48806AF0210840102806D13F
:100240000A48C06A0840002801D10120F1E70748A8
:10025000806AF0210840302806D10448C06A08406E
:10026000002801D10120E4E70020E2E7C00F00F000
:10027000FFF79AFF00F002F800BFFEE700201449E4
:10028000086001208107086000BF1148006800284D
:10029000FBD001200F49C8600820012181400E4A8F
:1002A000116000BF04200D49086100204860022051
:1002B00088600B4809494031086001200004094961
:1002C0004860012008490860024908607047000042
:1002D000000100400080004000E100E00085004097
:1002E00020A107000083004000820040FC020000C3
:1002F0000000002004000000880100000024F40039
:04000005000000C136
:00000001FF
