:020000040000FA
:10000000D80B0020F50000000701000009010000E6
:1000100000000000000000000000000000000000E0
:100020000000000000000000000000000B010000C4
:1000300000000000000000000D0100000F010000A2
:10004000110100008D1E00001101000011010000CF
:10005000110100000000000011010000110100006A
:1000600011010000110100001B1B00001101000024
:100070001101000011010000110100001101000038
:100080001101000011010000110100001101000028
:100090003D210000110100001101000011010000CC
:1000A000110100001101000000000000000000002C
:1000B0000000000000000000000000000000000040
:1000C0000348854602F00AFD004800474D2C000019
:1000D000D80B0020401E00BF00BF00BF00BF00BF04
:1000E00000BF00BF00BF00BF00BF00BF00BFF1D115
:1000F00070470000074802680F210A430260064863
:10010000804706480047FEE7FEE7FEE7FEE7FEE71A
:10011000FEE7000024050040012B0000C1000000A4
:10012000014610B50020002903D0012900D010BDE0
:10013000012000F0D8FA012010BD014610B50220C0
:10014000002908D0012908D0022907D0FA4801F077
:1001500011FB002010BD002000E0012000F0CCFACF
:10016000012010BD10B5012400280BD001280BD0B0
:10017000022802D0F14801F0FDFA204602F0F0FD1D
:10018000012010BD0224F8E70024F6E710B5002492
:10019000072814D203007B441B79DB189F44031209
:1001A0000507090B0D0004240CE0FC240AE0F824E8
:1001B00008E0F42406E0F02404E0EC2402E0E04847
:1001C00001F0D8FA204602F011FE012010BD0146D0
:1001D00010B50320002905D0012906D0022903D03B
:1001E000002010BD022000E0042000F032FB0120BE
:1001F00010BD10B5002803D0012803D0002010BD89
:10020000012000E0022000F02DFB012010BD01467E
:1002100010B5CC48C068407E002801D0002010BD39
:10022000C94881700121801C00F065FD012010BDCE
:10023000F8B50346C6B20004040E180E1B021B16C6
:10024000C04F5D4292B2062E51D233007B441B79DF
:10025000DB189F4402142A481345BB4B00281A8020
:1002600000D0012038703E46084600F0A6FC294622
:10027000204602F028FD307800282CD1F8BDB24D80
:1002800008462A804978CE07F60F00F096FCE878F9
:10029000002801D0002E03D0204602F013FDF8BD47
:1002A0000021204602F00FFDF8BD002800D00120FB
:1002B00038700E4600280ED0002E02D0A348864289
:1002C00002D1A34801F056FA304600F076FC2946E8
:1002D000204602F0F8FC2946204602F0D3FCF8BD87
:1002E00002F0CEFCF8BD9B4801F044FAF8BD9A48F4
:1002F000FAE7F8B50546994800F0C9FA9149012690
:10030000914AC860D670002830D000241480407E06
:10031000002801D0002706E00A2090700121901CDF
:1003200000F0E9FC0127002D02D0012D06D101E0EB
:10033000012000E0022000F095FA34463C40042001
:1003400000F087FA3546002002F050FD284602F002
:1003500007FD284600F0D0F9002000F0C4F9012084
:1003600000F0F3FC002C01D00120F8BD0020F8BD06
:1003700010B500F0D9FB10BD10B500F0F6FB00F091
:1003800007FC002802D002F07BFC10BD00F0EDFB62
:1003900010BD6C48C068407E7047082801D300201B
:1003A0007047FFB581B0064602981F4615460028E3
:1003B00028D0202D28D800F044FC002822D0304638
:1003C00000F037FC03281FD2304600F036FC03282B
:1003D0001AD200F0E8FB040016D02570002F16D0CA
:1003E000012F18D05E4801F0C5F92A46A01C0299D9
:1003F00002F050FBF0B2214600F0E9FB00280FD0DC
:1004000000BF012005B0F0BD002005B0F0BD607850
:100410000121084302E06078400840006070E4E792
:10042000504801F0A7F9002005B0F0BD70B51646A0
:100430000D46044600F001FC002812D0002D11D01A
:10044000204600F0DEFB04000ED0A01C0CD0227869
:10045000A11C2846326002F01DFB204600F0ADFBD7
:10046000012070BD002070BD3F4801F083F90020DD
:1004700070BD10B500F0DDFB10BD10B500F0DDFB68
:1004800010BD10B5C0B200F0E0FB10BD10B5C0B299
:1004900000F0F1FB10BD2C480088704710B500F04B
:1004A0007FFB012807D0022807D000242F4801F045
:1004B00061F9204610BD0024FBE70124F9E710B5DF
:1004C00000F02FFC022808D0032808D0042808D008
:1004D000274801F04FF9022010BD002010BD012077
:1004E00010BD022010BD1749C968497E002901D0FE
:1004F0000020704710B500F0A3F9012010BD10B521
:1005000000F0C3FB10BD0F49C968497E002901D026
:100510000020704710B500F08DF9012010BD10B516
:1005200000F0B9FB10BD074AD268527E002A01D103
:1005300008281FD3002070478B02020058020200D7
:1005400019020200040000200C000020ADDEADDE28
:10055000220302002C0302003103020031020000DA
:10056000B3000200B9000200DF0002002F01020008
:100570005F01020010B500F01CF9012010BD082831
:1005800001D30020704710B50C4600F08AFB2070A4
:10059000012010BD10B500F059F9012010BD10B5B3
:1005A00000F0C4FB10BD4749C968497E002901D04D
:1005B0000020704710B500F0F6F8012010BD10B50E
:1005C00000F0B7FB10BD3F49C968497E002901D042
:1005D0000020704710B500F0BFF8012010BD10B525
:1005E00000F0B0FB10BD38488078704710B502F0BD
:1005F000B1FBF0281CD006DC002811D004280DD057
:10060000EC2806D116E0F42810D0F8280CD0FC28ED
:1006100008D02E4801F0AEF8012010BD002010BD1A
:10062000012010BD022010BD032010BD042010BD0C
:10063000052010BD062010BD10B502F085FB002876
:100640000AD001280AD0022804D0214801F092F8EB
:10065000022010BD002010BD012010BD022010BDE1
:1006600010B502F06BFB002807D0012805D0022846
:1006700003D0184801F07EF8022010BD10B5002408
:1006800000F075FB002804D0012804D0124801F0C6
:1006900071F8204610BD0124FBE710B5012000F0E1
:1006A0001EF809490120C87010BD10B5002000F0E7
:1006B00016F805490020C87010BD02484168491C61
:1006C00041607047040000200C000020400202003E
:1006D00072020200A5020200CE020200704710B5AD
:1006E00001F0D2FF10BDF74908777047F549487609
:1006F0007047F4490876704710B5F3494A6B120AFF
:1007000012024A63002809D001280AD0022811D019
:10071000032818D0ED4801F02DF810BD486B486350
:1007200010BD486B012210434863FF20C863FF20BF
:10073000083006E0486B022210434863E448C8636F
:10074000E448886310BD486B032210434863E248C5
:10075000C8630020886310BDDA494883704710B42D
:10076000D849DE4A88601478DD4B022C02D05268EA
:10077000002A03D0C868186010BC7047186010BC0D
:10078000704710B4CF49D54AC8601478D44B022CB6
:1007900002D05268002A02D0186010BC70478868E6
:1007A000186010BC7047C74948607047C549486128
:1007B0007047F0B48207D60EFF22B240D7438B07B2
:1007C000CA07DB0F120E9B0113434A07D20F5201D7
:1007D0001A430B07DB0F1B019C46CB06DB0FDD002A
:1007E0008B06DB0F9C004B06DB0F5B00C90904285E
:1007F000B5480FD2406A3840B34F78626046104324
:1008000005432C4323431943786AB140014379627D
:10081000F0BC7047806A3840AB4FB8626046104306
:1008200005432C4323431943B86AB1400143B962DD
:10083000F0BC704710B500F0D8FEA349086210BDA7
:1008400010B500F0D2FEA049C86110BD9D490861F5
:1008500070479D498A6907231B049A430004024399
:100860008A61704710B5012181F310889B490A788D
:10087000824205D04870487E002805D000F0E3FE93
:10088000002080F3108810BD00F004FFF8E7F8B5F1
:100890000446012080F31088904D68700320287072
:1008A0000021A9706960A960A981E9812961696154
:1008B00029768C48697641618A4A03209060884F86
:1008C0003846B96041608848016041608160C1601C
:1008D0000161017501F0ADF98449486001F074F8D7
:1008E000204601F0E1FB01F079FC002001F0D8FE88
:1008F000384600F043FF7F4A7D481168FF231B0400
:100900009943116001681A12914301607A480168A5
:100910004022090A090211430160012080F3108876
:100920002978012905D06870687E00287ED000F003
:100930008AFE002080F31088634CA0690721090417
:100940008843012189040843A06100205D4EC04313
:1009500030616A4800F049FEE061694800F045FEF8
:100960002062E7210020FFF724FFC2210120FFF7CA
:1009700020FFC3210220FFF71CFFC4210320FFF743
:1009800018FFC5210420FFF714FFC6210520FFF73B
:1009900010FFC7210620FFF70CFFC8210720FFF733
:1009A00008FF002070614B20C00070600020C04331
:1009B000F0602A78022A02D0696800297DD0386068
:1009C0000021C943B160022A03D0444A5268002A78
:1009D00076D03860102070830020E060606B000AE1
:1009E00000026063606B0227384360633848E0634D
:1009F0003848A06301252561434842494162434983
:100A000081624349C1624349016343494163357689
:100A100075760020307701F037FE6920306060691C
:100A20002902884360616069000900E042E000013A
:100A3000801D606160690F21090488430321090456
:100A400040186061A06969068843A061A0694910E7
:100A50000843A061A069000A00022030A061A169DA
:100A6000FF2000028143A1611C4C6078012802D064
:100A70002A4800F07FFE25700025A5706560A560FE
:100A8000A581E581256165612576657601F041F8EE
:100A90001449C8612248886103204860214809152B
:100AA000016007608902016085F310880B48F8BD7A
:100AB00003E005E000F0EEFD3BE7B16839607FE759
:100AC000396087E7600000200015004063030900DB
:100AD000FFFF000021100100FFFFFF008000002049
:100AE000B400002000F501409C000020140000200C
:100AF00000E400E008E400E014E400E0E7E7E7E7F2
:100B0000C2C2C2C200500078001700404E0000541C
:100B100002800C6011646600DEC08F82DA01090079
:100B20000411004080E200E070B5FE4C607E0028B9
:100B30001AD1FD4DA868002802D1FC4800F01AFE29
:100B40006868002802D1FA4800F014FE01F0B7FDF1
:100B5000002802D0F74800F00DFE002001F0A5FDAE
:100B60000120607600F06FFD70BD10B5012080F3AC
:100B70001088EC48417E002906D08178002903D1F5
:100B80000121817000F05FFD002080F3108810BD0E
:100B9000E448407E002801D00020704701207047C3
:100BA000E0480078704710B5012080F3108801F00C
:100BB00048FB002181F3108810BD10B5012181F39D
:100BC000108801F03CFC002080F3108810BD10B5A7
:100BD000012282F3108801F01FFD00280DD0D148BA
:100BE0008178002904D1407E002801D000F02BFD3F
:100BF000002080F31088012010BD002080F31088B1
:100C000010BD10B5012181F3108801F033FD0021E2
:100C100081F3108810BD10B501F027FD10BD10B58F
:100C2000012181F3108801F015FB002181F3108868
:100C300010BD10B501F007FC10BD10B501F005FBAB
:100C400010BD10B501F0E4FC10BD10B50446012143
:100C500081F31088B3490878002805D0487E002821
:100C600002D0B54800F086FD204601F0E8FC0020E7
:100C700080F3108810BD10B5012181F3108801F0B8
:100C8000FEFC002080F3108810BD10B5AB48C06991
:100C900000F0ABFC10BD10B5A848006A00F0A5FC40
:100CA00010BD8107C90EFF228A40A44B042801D23F
:100CB000586A00E0986A1040C840C0B2C1070A0EE6
:100CC0008107C90F890111434207D20F52010A431C
:100CD0000107C90F09011143C206D20FD2000A430E
:100CE0008106C90F890011434206D20F52000A4300
:100CF000C0091043704770B50C00054602D19048FA
:100D000000F038FD002D02D18E4800F033FD8648FA
:100D100085604460002000F024FE70BD8A48406970
:100D20007047864880694003400F704786480069D5
:100D300070478548406870478348C068704782485C
:100D4000806870478048408B704710B504467F48E4
:100D50004068002802D17E4800F00CFD7D480475F3
:100D600010BD7948007E70477748407E70477648CE
:100D7000007F704710B575490520087000F0B6F87F
:100D800010BDF0B5734C8BB060684078C00705D1DA
:100D900001F07DFC002801D000F012FF6B4F032012
:100DA000387000206C4E20603068012803D0634802
:100DB000406B002817D160680078202813D8B568E8
:100DC00003A801940090F26801232946184601F017
:100DD0003EFB002846D0012821D0022846D0032817
:100DE00011D05E480DE0B568002500952B462A46D7
:100DF00029462846019501F02AFB6575042802D092
:100E0000574800F0B7FCB1684C48C1622068002820
:100E100055D054482061042038700BB0F0BD0398C1
:100E2000002802D0504800F0A5FC284601F00DFA39
:100E3000002802D14D4800F09DFC78680023817D98
:100E400002226846059302706A460193138153811A
:100E5000557091700598D070684601F037F90120FF
:100E60006075D0E7424800F085FCCCE70398002885
:100E700002D1404800F07EFC284601F0E6F9002847
:100E800002D13D4800F076FC0398022286460020FD
:100E90008446049078680123817D6846027070461C
:100EA000019060466A4610816846049A4281457006
:100EB0008170C37001F00AF901206075A3E700207A
:100EC0002061607500F012F80BB0F0BD10B51F4C3A
:100ED0002078012802D0294800F04CFC0220207024
:100EE0001C48002101612649C16010BD70B500F0A9
:100EF00067FE184C0025154E012025613070124800
:100F00000E490069086301F058FB002852D001F037
:100F100054FB032802D01B4800F02CFC022000F0F8
:100F2000B7FE31E080000020B4000020000209007C
:100F300001020900080209009C0209000015004096
:100F4000ED020900EE0209006000002014000020FC
:100F5000960309009C00002000140040770509005A
:100F600080050900750D000065050900660509008A
:100F70006B0509006E0509006F05090034050900BD
:100F8000830D000022050900002000F0D9FE01F0C9
:100F900014FB032802D0FE4800F0ECFB3078012857
:100FA00002D0FC4800F0E6FB02203070FA482561D0
:100FB000E06070BD01F0BCF80228AFD301F020FA68
:100FC00060600028AAD1F548A6E7F0B5F44885B0DE
:100FD0000068012803D0F348406B002806D1F2488E
:100FE00040680078202801D8012500E00025EF4C5A
:100FF00001266069002804D100F026FD002800D1F8
:10100000666101F0DAFA012802D0E94800F0B2FB8B
:10101000E8484068007D002802D0E74800F0AAFBBD
:1010200000F0CEFD002D57D00121084601F084F9D3
:10103000052840D203007B441B79DB189F4402380B
:101040001D383800002701F0D5F90390A689E589FD
:1010500001F0CDF90246D74869464068837D0F709C
:101060000399019169460E814D814A7000208B7071
:10107000C870684601F02AF81DE0002701F0BAF9AF
:101080000390A689E58901F0B2F90246C94869468C
:101090004068837D0F700399019169460E814D81EF
:1010A0004A7001208B70C870684601F00FF802E0AA
:1010B000C24800F05FFB00F061FC2061C048C14AFB
:1010C000416961602378022B01D0002906D0C068F5
:1010D0001060002000F055FC05B0F0BD8068F7E717
:1010E000F0B5B248B74C4069B54EB24F002589B053
:1010F000002803D100F0A8FC002824D0AB484168A8
:10110000002901D0491E41600178022902D04268BD
:10111000002A77D0F268226004468078002872D0D6
:1011200000F039FB607E00286AD000F08AFC0128BC
:101130006AD000F076FC307F002835D0002001F026
:10114000B4FA6560DEE199480078012802D00228EF
:1011500005D009E001F050FE002805D0E3E1387821
:1011600004287CD003287AD000F015FB8F48416812
:10117000002901D0491E41600178022902D041684E
:10118000002915D0F168216004468078002811D02C
:10119000607E002834D000F054FC012834D000F0E8
:1011A00040FC307F0028C9D1012081074860C5E795
:1011B000B168E8E700F06EFA002807D000207668F2
:1011C00001F073FA6069B0427ED3E5E1207800282F
:1011D0007BD0012819D0022878D07B4800F0CAFAC9
:1011E000707E01280CD12078022809D0616800297E
:1011F00006D100286BD001286AD0744800F0BAFAF2
:1012000009B0F0BD98E199E17CE100F0D9FC01F072
:10121000D4F9002824D0708B00287DD0A189814288
:101220007AD30121002001F087F8012701F0E2F8CC
:101230000690A2890392E289059201F0D8F86946E6
:101240000F70069901916946039A0A81059A4A81AD
:1012500048708D70CD70684600F038FFCDE062E1D7
:1012600000F066FF02287DD32078022802D0606853
:10127000002804D000F092FB002833D0BDE02069A4
:1012800000F06FFB002000F07CFB00F0E7FF00287F
:1012900068D0A581E58101F0AAF84249C86201F051
:1012A000A6F8012181403F48016301F0A3F83E49BF
:1012B000086001F0A2F83C4948604548C86000F069
:1012C00040FB3849886004E014E1E4E0C5E004E153
:1012D000ECE001F072F901287CD001F06EF90228EF
:1012E00079D07DE0307E002828D000F0B7FF0028BC
:1012F00038D0A581E58101F07AF82A49C86201F069
:1013000076F8012181402748016301F073F82649EE
:10131000086001F072F800E077E0234948602C484B
:10132000C86000F00EFB1F49886001F046F90128F3
:1013300050D001F042F902284DD051E000F01EFBE0
:101340002169884259D100F089FF002855D0A58134
:10135000E58101F04CF81349C86201F048F8012119
:10136000814000E049E00F48016301F043F80E4975
:10137000086001F042F80C4948601548C86000F068
:10138000E0FA0849886001F018F901285BD023E0F1
:101390002A05090034050900830D00001D05090018
:1013A00000140040001500409C0000208000002038
:1013B00051060900140000205206090071060900B8
:1013C00060000020B4000020FB03090015040900A0
:1013D000CB0F000037E034E001F0EFF8022830D006
:1013E000D64800F0C7F92CE000F052FC00F093FB67
:1013F000D34908617868406848610120376801F086
:1014000054F96069B84220D34CE000F01DFB00287D
:1014100002D0CC4800F0AEF900F093FACA498968CE
:10142000884202D0E089401CE08100F08AFAC64977
:10143000886001F0C2F8012805D001F0BEF802284A
:10144000CED10020D0E70120CEE760690122391A11
:10145000BE4800F0FCFA6561C2E60020009000F092
:1014600070FAB9498968884201D1009805E000F016
:1014700068FAB5498860012000903978401E08421A
:1014800001D1FFF733FD0020776801F00EF96069A4
:10149000B842DAD306E00020776801F006F9606907
:1014A000B842D2D3AA4800F065F9CEE701F085F83A
:1014B000002800D0A4E600F0C1FE0028FAD100F018
:1014C000C0FA0128F6D000F0ACFA307F00280DD029
:1014D000002001F0EAF8656092E600F0B2FA012817
:1014E000E8D000F09EFA307F0028F1D1012081077A
:1014F0004860EDE760690122311A944800F0A7FACC
:1015000065617DE600F05CFBA570657605216846A7
:10151000017001950581458145708570C57000F0A9
:10152000D5FD3D706CE67068012241088948416133
:10153000864800F08CFA63E6B268ECE502290AD02E
:1015400000F029F90020766801F0AFF8814C60695D
:10155000B04221D2CEE738780428E4D00328E2D084
:1015600000F019F9002400F0ECF9774FB9688842CF
:1015700003D000F0E6F9B86001247748641E0078D3
:10158000044201D1FFF7B2FC0020766801F08DF82B
:10159000704C6069B042ADD36D4800F0EBF8A9E73C
:1015A00070B56D486B4C4068407D002805D0012027
:1015B00000F0C6FBA089401CA0810026604930468F
:1015C0004E6166494A680968551A01F06EF860690B
:1015D000A84202D35E4800F0CDF860690122291AC2
:1015E0005A4800F034FA666170BDF0B4034600203A
:1015F00002461826D5001946E940C9B2CC07270E85
:101600008C07E40FA4013C434F07FF0F7F012743E2
:101610000C07E40F24013C43CF06FF0FFF003C43BF
:101620008F06FF0FBF0027434C06E40F64003C43C6
:10163000C9092143741BA140521C0843D2B2042A99
:10164000D8D3F0BC704710B500F0FBF9012820D1C9
:1016500001F03BF8002802D0414800F08BF800224E
:1016600064213A4800F0F3F93C48007F00280ED18D
:101670003C48012141613C48002202608205116022
:1016800000BF00BF00BF00BF01680029FCD000F010
:10169000C1F910BDF0B52F4D83B028786978884224
:1016A00049D027480024446100F08AFA2F4E2B4F7E
:1016B000346074603461B460F4602878012802D02A
:1016C000022809D01CE000F078FF002815D0002186
:1016D000084600F031FE10E000F072FA1E48346156
:1016E000047000F06AFF032807D1002300941A4613
:1016F00019461846019400F0AAFE2878022802D064
:101700006868002813D01A48F96801606878287062
:1017100004216846002301700193038143814370D3
:101720008470C47000F0D2FC012003B0F0BD1048FA
:10173000B9680160EAE7002003B0F0BDD4050900F4
:1017400000F50140AD04090000150040D12600005D
:101750000306090080000020140000206000002023
:10176000E205090000050040000100409C00002047
:10177000B400002010B5FEF7A0FF10BD10B50400A6
:1017800002D18848FFF7F6FF8748002104608748A8
:101790000160416010BD85484168021F491C4160DD
:1017A00012681368994208D3002343600168491CFA
:1017B00001605268914200D303607047002832D024
:1017C000F8B57A4A131F176851681C6801281CD0A5
:1017D0000E181046466025683046294601F044F947
:1017E000C3197248AE42036005D321684268521A99
:1017F00042608A42FAD261686C488B4204D3026824
:10180000521A02608A42FAD2F8BD491C516020681F
:101810008142F9D37F1C00201760506061688F42BD
:10182000F2D31060F8BD70475F48604900684968AE
:101830000068401A704770B55B4D044628684068E0
:10184000A04202D85A48FFF795FF58480168A142C4
:101850000DD0A14202D32A68526814192A68406840
:101860001268131A601A401E5043181870BD0020E9
:1018700070BDF8B50D4600260446A84202D34D4877
:10188000FFF778FF484F38680068A84202D24A48FC
:10189000FFF770FF45484068A04201D3A84207D334
:1018A000A04201D2261A03E039680968081A06190D
:1018B0003046F8BDF8B53C4E0546306814464068E1
:1018C0000F46A04202D83A48FFF754FF3748006855
:1018D000A04210D0354AA04202D3316849680C19A1
:1018E000316852680968201A401E8A1A4843101845
:1018F00001D04019F8BD0024BD4202D32D48FFF7A6
:1019000039FF30680068B84202D22B48FFF732FF37
:1019100026484168A94201D3B94207D3A94201D25E
:101920006C1A03E030680068401A44193368204696
:101930001A68511A8142DDD85968491E5143081965
:10194000F8BD70B5194C251F296820684968884280
:1019500002D31A48FFF70EFF286821688068405CB0
:1019600070BD10B50446104800684068A04202D817
:101970001348FFF7FFFE0D48046010BD0B480068D8
:10198000704710B50446084800680068A04202D8B5
:101990000C48FFF7EFFE0548446010BD034840685F
:1019A000704700002A0001001C00002020000020D9
:1019B000680001007D0001007E000100B20001000E
:1019C000B9000100C500010070B5694801254560F6
:1019D0006849CD63C560684E0024B46067484560BF
:1019E00067484068002802D06648FFF7C3FE002021
:1019F0006549C043886065480460042030616448DC
:101A0000446005704470847008156249086062493A
:101A1000086070BD5649012008605D4900200870CB
:101A2000704710B4524801214160C16000225848FB
:101A3000584C426042708B0223608270017010BC6F
:101A40007047534800787047514840787047F7B561
:101A50000746002401204C490004154688604C4E7E
:101A6000B078002802D04D48FFF784FE002F02D145
:101A70004B48FFF77FFE7068002802D04948FFF707
:101A800079FE2846776001273D4D002820D00128A7
:101A900028D0022824D04448FFF76CFE3B48B7709A
:101AA000002101600199611889B229602E683349CB
:101AB0004F606D680068002802D03C48FFF75AFE6E
:101AC000A64211D3A54201D3B5421CD3384818E031
:101AD0002A4847606C6807602C4900200860DDE7F1
:101AE000AC68DBE72C68D9E7B54201D2012000E001
:101AF0000020AC4201D8012100E00021884202D13F
:101B00002C48FFF737FE01201F490004486003B04E
:101B1000F0BD294870471D48704770B501201A492B
:101B200000048860194800250560194C6068002889
:101B300002D12248FFF71EFEA57063680F480122FC
:101B4000656042600E484168006895031430A94200
:101B500005D20325AD03A84201D9627005E0814298
:101B600001D3012000E000206070984770BD0000A4
:101B700000A000404000004000A5004040A0004000
:101B800040A500403600040000A3004040A10040F2
:101B90002800002080E200E000E100E07400040082
:101BA00076000400770004008A0004009C00040012
:101BB000B1000400CA00040048A00040ED00040089
:101BC000F8B5FF4802270760FE4940178860FE48C5
:101BD0000760FE4800240460FD4E3461FD49012089
:101BE00008618861FC4D287801281CD002281ED08D
:101BF00003281CD00120FEF76DFA3461F3482C70E5
:101C000004600020EF49C0438860EF480760F4603B
:101C1000032068703460346174606C602C75EF4828
:101C20006C750760F8BD0620FEF754FAE5E7022060
:101C3000E1E710B5EA4902240860E1480460EA4897
:101C4000E8494162E9490162FFF7BAFF0021E24831
:101C50000322017042704160016101754175817517
:101C6000DE480460DC4810BD10B5002808D001280B
:101C700006D0022804D0DE48FFF77CFD002010BD0E
:101C8000D5480078002801D0002010BD012010BDEB
:101C9000F8B50546D7490001CF4C4718207D0028EC
:101CA00002D0D548FFF766FD0026002D2AD0012D71
:101CB00028D0022D26D0CE48FFF75CFDCF48FFF795
:101CC00059FD0021BF486675C9438160BE490220A5
:101CD0000860C34865700068032D0168A160406812
:101CE0002661A661E0603A6862601BD2B74B3A7A1F
:101CF0001A60FB7AC24A002B08D050605068002856
:101D00000DD109E020780028DBD0D7E7516050687A
:101D1000002804D1BB4800E0BB48FFF72BFDA948D1
:101D2000797A4160AE480068007D002805D0022D18
:101D300003D1AD49A6750420486001206075F8BD47
:101D4000F8B5A54C07466578AA4928014618607D74
:101D5000012802D0AD48FFF70DFD207D002802D0FC
:101D6000AB48FFF707FD0120002120756175032DA9
:101D70000AD2002F01D131680860022D01D0012D57
:101D800005D1B07A207002E0A248FFF7F3FC944836
:101D90000068007D00280FD0022D0DD192484068C8
:101DA000400702D49C48FFF7E5FC954840680028AE
:101DB00002D19A48FFF7DEFCF8BD7047F8B58648B7
:101DC000874A06690327814B0025814C1168012E43
:101DD00005D0022E48D09248FFF7CCFCF8BD04266F
:101DE00006708669761C86611F60774E0223336019
:101DF000E560256025616560724B08265E60097D9F
:101E0000002910D0874EB168774F81753868400738
:101E100002D48548FFF7AEFCE5616E490120886178
:101E20000420B860B5602068002802D07F48FFF722
:101E3000A1FCE068002802D07D48FFF79BFC7D48AC
:101E40000068800702D57C48FFF794FC644C20684A
:101E5000C068002800D080472068417D0029BDD09F
:101E6000674900684860F8BDE560256125606560E8
:101E70001D600023534A0570DB4393604770456043
:101E8000057508690028EED08047F8BDF8B5524CBA
:101E900020696778401C2061607D002802D0674877
:101EA000FFF768FC20462278464D002448494C4EF6
:101EB000032A3FD1CA68002A3CD0012F03D0022F49
:101EC0002FD05F48E7E007460069032802D05D484D
:101ED000FFF750FC02203870B969491CB9613B49D1
:101EE0000C60C11EA960384908603948C4600460AC
:101EF00004614460032179707C603C753268117D17
:101F000000290AD047498B68BB75C461314B012059
:101F10009861354B042098608C60D06800283AD1D5
:101F2000F8BD0069012802D04748FFF723FCFFF7FE
:101F300045FFF8BD032F41D0012F2ED0022FF6D040
:101F400042782C4B1201D218137B0027002B03D0B0
:101F5000CB68002B00D00127927A1C4B02701C60CA
:101F6000032A2CD00022D243AA60174B02221A6007
:101F7000CC60032242700C600C614C6044600475BC
:101F800030680069002800D08047002FD1D0306829
:101F900080680028CDD08047F8BD0269012A61D051
:101FA000022AF9D1CC600C610C6008490C60111F49
:101FB000A960082169600321017047E06AE063E0DD
:101FC00080E100E00013004080E200E000120040E9
:101FD0000011004000100040C000002000E100E0BF
:101FE000300000201410004000F5014004110040B2
:101FF000F9020A00B42E0000DB000A00DD000A002E
:102000000015004000010A0005010A0021010A0034
:1020100022010A003A010A0040010A0041010A00B7
:10202000E7020A0040150040AD020A00B6020A00AD
:10203000B7020A0000E200E0B8020A0090010A00BC
:10204000A9010A009F010A00A4010A004460047566
:1020500030680069002800D0804730688068002818
:1020600099D1F8BD0C604C600021C943A9600121E1
:1020700069603168097D002902D0084A0421516055
:102080000749C0684860F8BD0822D243AA60082208
:102090006A6070E70348FFF76DFBF8BD00F501408B
:1020A00000150040D6010A0010B5040002D14448D2
:1020B000FFF760FB43490C600020C8674249086095
:1020C0004860012041490005086010BD70B53D4DD4
:1020D00004462868002802D13D48FFF74BFB3A4EE2
:1020E00070680A2802D33B48FFF744FBE86F0C21D5
:1020F000484341192078087160784871A078887148
:10210000E078C87160688860208988816089C881AA
:102110007068401C7060E86F401CE867E86F0A2830
:1021200001D30020E86701202B490005086070BD3D
:10213000254840680A21081AC0B27047F8B5214DF9
:102140002C468034012080F310886068002832D04B
:1021500020680C21484340190279310A09021143D1
:102160004279FF231B02120299431A4011438279DC
:102170001B02120499431A401143C2790E02360A17
:1021800011060E4381688289C08997B20004074313
:102190006068401E60602068401C206020680A283B
:1021A00001D300202060002080F310882B683A467D
:1021B00030469847C6E7002080F31088F8BD00003D
:1021C00029000B00E40000206401002000E100E091
:1021D00034000B0035000B0000E200E070B500F0A9
:1021E00087FA0022F64CF74E104601069300014391
:1021F0001B199961134605060146083329439D00C2
:102200002D19A961A11880310870E118803108707A
:10221000B054521C082AE8D320706060A060E060CF
:102220002061E94960610874E84A48741076E06703
:102230000120887470BDE349085C7047E248007C67
:10224000704710B500F096FA10BD10B5083000F0D8
:1022500041FD10BD10B500F05CFB10BD70B5D84C51
:102260002078002802D0DA48FFF784FAD64D0026FD
:10227000287C002825D02069606000F04AFBA0601F
:10228000002802D1D348FFF775FAA0684078C0074C
:1022900005D1A87C002802D00220E6600FE060682B
:1022A000083000F017FD03280BD2E06F002802D1A0
:1022B00000F060FAE067E060002802D001202070A2
:1022C00002E02078002816D0A068002802D1C24879
:1022D000FFF750FA2069606080000119C87EF92379
:1022E000401CC876A26880075178400F194001430E
:1022F00051702E74012070BDF8B5B14C20780028C3
:1023000019D1B14E307C002815D10825012760690C
:1023100000F0E0FC002802D0377460692061606939
:10232000401C6061082801D100206061307C0028D9
:1023300001D16D1EEBD1F8BDF8B5A14C0646207851
:102340000D46012804D0022802D0A448FFF712FA53
:10235000002E28D02078012802D0A148FFF70AFAE1
:10236000E068002802D19F48FFF704FAE06800788F
:10237000002804D0E06F6668002805D101E000273E
:1023800012E09948FFF7F6F931460831E06F00F0A6
:1023900056FA002802D00020E06702E09348FFF7D9
:1023A000E9F9022700E00427002D1AD065682846C5
:1023B00000F08BFA06000ED08348007C002804D081
:1023C0002069A84201D1FFF797FF002061198031F1
:1023D00008707C494855A068B04202D08448FFF795
:1023E000C9F900202070FFF787FF3846F8BD744810
:1023F000406870477248806870477148C06870478D
:1024000070B56F4D2878002802D07A48FFF7B2F9EE
:10241000E86F002802D100F0ADF9E86704000CD0A5
:10242000FF2020706078062108436070FF22202181
:10243000A01C00F041FB03202870204670BD10B5A1
:1024400000F0C6F910BD10B500F044FC10BDFFB59A
:102450005B4885B0C06F032500270F9E0C460028FF
:1024600002D16548FFF786F955480078032802D065
:102470006248FFF77FF95248C06F41785248CA0757
:1024800001901ED1807C00281BD000200090059870
:1024900000286FD0079849070002890F000A484BAF
:1024A00009060843A200D118896B00220E9B8842BE
:1024B0001A60326003905FD0414FF86F002805D159
:1024C00001E00120E2E74848FFF754F93C48214683
:1024D000C06F0831029100F0B2F9002804D000204A
:1024E00037490127C86700E000270098384000906E
:1024F000002F41D002988100314809180398886163
:1025000008993846084236D02E48005D002832D05F
:10251000204600F0DFFB002802D13948FFF72AF9F6
:10252000204600F0D2F90290002811D001982546EB
:10253000007C002805D022480069A84201D1FFF79D
:10254000DBFE1F4900204919803108701D4948559C
:102550000E99029808600E99002909D0002802D12E
:102560002848FFF707F9002116480225015503E026
:102570002548F6E712E00125009800280AD02046F9
:1025800000F0C7F93060002803D00E480121015542
:1025900001E01E483060002F01D006E00425084C01
:1025A000E06F00F015F90020E06705490020087091
:1025B000FFF7A2FE284609B0F0BD01480078704739
:1025C0006C01002034000020EC010020AC01002050
:1025D00001010C0007010C0025010C003A010C0060
:1025E00040010C0041010C00AD020C004C010C003C
:1025F0005C010C0079010C0099010C009A010C009F
:10260000CF010C00D4010C00D8010C00C401002043
:1026100010B500F059FB10BD70B50E4604460025FC
:1026200000F052FB002808D02146304600F007F9A0
:10263000002802D0FFF760FE0125284670BD70B566
:1026400004461448144D007C002804D02969A14296
:1026500001D1FFF751FE2919002080310F4A08707F
:102660001055204600F06DF970BD10B5083000F02F
:1026700050F910BD10B5083000F027F910BD10B5A5
:10268000083000F05EF910BD0249887470470148B7
:10269000807C7047EC0100206C0100203400002099
:1026A0001049887048700870704710B504460228B9
:1026B00002D30D48FFF75EF80A48447010BD094880
:1026C0000078704707488078704706484078704720
:1026D00004480178817041780170880003490858E6
:1026E000004700003C0000202A000D0040000020B0
:1026F00070B40020CB4A01464300C418A318597097
:1027000099701155401C1028F6D30021C64DC74BB7
:10271000DE240A46222042438E0050199851AC54C0
:1027200044708470C470047144718471C471047203
:1027300044728472C472047344738473C4730474E3
:1027400044748474C474047544758475C4750476C3
:1027500044768476C476047744778477C4772030CF
:102760000470491C44700629D3D3B149062008607F
:1027700070BC704770B5AE4900240A68002A25D0A5
:102780009300AA48AB4D1B18403BDC6B521EDD6327
:102790000A600021002A0BD98B00C558A54203D13D
:1027A000A548FEF7E7FF0EE0491CC9B29142F3D3FA
:1027B0009D4A0021222048438318A34206D0491C89
:1027C000C9B20629F6D39D48FEF7D4FF204670BD56
:1027D00070B5974C05462068062802D39848FEF746
:1027E000C9FF21680020914E00290BD98200B25800
:1027F000AA4203D19048FEF7BDFF0EE0401CC0B2D4
:102800008842F3D38848002122224A431318AB425E
:1028100006D0491CC9B20629F6D38A48FEF7AAFF9A
:102820002068844980003058884202D08648FEF7EC
:10283000A1FF206881007550401C206070BDF8B574
:102840000D460446102902D38048FEF793FF7849CD
:1028500000200968064600290CD9744A8300D35821
:10286000A34203D17448FEF785FF0EE0401CC0B2BE
:102870008842F3D36C480022222151430B18A34213
:1028800006D0521CD2B2062AF6D37148FEF772FF68
:102890006800644A2918505C032814D20C20454370
:1028A0006C482B1888184578AD005C51401C0478A2
:1028B000641C04700478032C00D30670505C401C28
:1028C00050540120F8BD0020F8BD70B50025044625
:1028D000102802D36048FEF74DFF600051492218CE
:1028E000885C002813D00C2044435A482318501801
:1028F0008478A4001D59801C0478641C047004783A
:10290000032C01D300230370885C401E88542846A2
:1029100070BD10B50446102802D35048FEF72AFFB8
:10292000600021183F48425C002A08D00C22544322
:10293000484AA218081880788000105810BD00205E
:1029400010BDF0B583B00546102802D34448FEF709
:1029500011FF28460C2148433E4940180190680069
:102960002E18304830180090102D02D33A48FEF748
:1029700001FF2C49885D002851D00098019A837886
:102980009B00D458801C0278521C02700278032AE3
:1029900001D300220270885D401E8855002C3ED075
:1029A0002448844202D12F48FEF7E4FE204F3868C5
:1029B000062802D32248FEF7DDFE1D4900200968E3
:1029C00000290CD9194A8300D358A34203D11A48CD
:1029D000FEF7D0FE0EE0401CC0B28842F3D312488E
:1029E000002122224A431318A34206D0491CC9B22F
:1029F0000629F6D31348FEF7BDFE0D480B4F0068BD
:102A0000800039580B48814202D00F48FEF7B2FED1
:102A1000074801688A00BC50491C0160A4E703B064
:102A2000F0BD00000002002008030020F00200209A
:102A300048000020ADDEADDEF60003007D0003009F
:102A40008500030086000300880003008F00030058
:102A50009000030030020020A6000300B70003002E
:102A6000D7000300DB00030030B50B460146002011
:102A70002022012409E00D46D5409D4205D31D4684
:102A80009540491B2546954040191546521E002D7C
:102A9000F1DC30BD03460B439B0703D009E008C9B6
:102AA000121F08C0042AFAD203E00B780370401CFE
:102AB000491C521EF9D27047D2B201E00270401C8C
:102AC000491EFBD270470022F6E710B513460A46AE
:102AD00004461946FFF7F0FF204610BD064C0125BD
:102AE000064E05E0E36807CC2B430C3C98471034B6
:102AF000B442F7D3FDF7E8FAE42E0000F42E00000C
:102B000010B500F06DF8002805D007480749486067
:102B1000C8130749886100F047F8002802D0012057
:102B20000449886010BD0000DFFF07C000050040B9
:102B3000006C00400006004002E008C8121F08C1F7
:102B4000002AFAD170477047002001E001C1121F2E
:102B5000002AFBD17047000010B50020FDF7E0FA15
:102B60000120FDF7C6FB0220FDF7E7FA0220FDF782
:102B7000F9FA4B20C000FDF716FD0520FDF723FDF7
:102B80000320FDF707FD0020FDF721FB2C2100208D
:102B9000FDF7C9FC0348FDF7A6FC1420FDF737FB41
:102BA00010BD00003E3E00000C48008CC0B2012861
:102BB00012D10A48808C0007000F00280CD107486A
:102BC000806AF0210840402806D10448C06A0840C5
:102BD000002801D1012070470020FCE7C00F00F061
:102BE0001948008CC0B201282CD11748808C0007EE
:102BF000000F002826D11448806AF02108400028E0
:102C000006D11148C06A0840002801D10120704750
:102C10000D48806AF0210840102806D10A48C06A91
:102C20000840002801D10120F1E70748806AF0211F
:102C30000840302806D10448C06A0840002801D165
:102C40000120E4E70020E2E7C00F00F008B5122001
:102C500000F05AF8132000F057F8122000F066F840
:102C6000132000F063F800200B2302460921009096
:102C700000F0CAF8FFF770FFFDF77AFB00BFFEE730
:102C80007047000038B504460D466A460B490020DF
:102C9000FDF7CCFB009800280BD0122008494968AA
:102CA000012282405140064A516000BF034800F0B3
:102CB000F1F80020FDF7EAFB38BD00004C000020D1
:102CC00000050050704770470148006870470000D9
:102CD0004800002010B50446102802D30348FEF730
:102CE00049FD600002492018085C10BDC8000300BF
:102CF0000002002010B58A0005231B0707242402C8
:102D00001B1984001A5110BD012105221207072347
:102D10001B02D2188300D1507047012105221207EF
:102D200007231B02D2188300D15070470121814034
:102D3000014AD16070470000000500500148406B17
:102D4000C0B270470015004001480069C0B270472A
:102D5000001500400148C068C0B27047001500402F
:102D600030B4164C164B1749174A184D00280DD091
:102D7000012816D0022807D120614B6214488A62CC
:102D8000C86214484D63086330BC7047002020615E
:102D90004B6211488A62C86210484D63086330BCB8
:102DA0007047012020614B620D488A62C8620D485D
:102DB00008630D48486330BC7047000000150040B0
:102DC00000500078001700404E0000543E420F8231
:102DD00008800C608864720003800C6022647200BA
:102DE00002800C6011646600DEC08F820149C860F9
:102DF000704700000015004002484068012800D0DC
:102E00000020704700110040F8B507460C461546F3
:102E10001E462046FFF781FF00213046FFF76AFF7C
:102E20001048C4604661069800280DD03846FFF768
:102E300074FF00212846FFF75DFF0A48056187609F
:102E4000012008494031C862074806494862042009
:102E500008600120054988600860002004498860F6
:102E6000F8BD00000025004000E0D7010020004030
:102E7000002100400549C86100BF0549C969012911
:102E8000FBD10021024AD1617047000000250040BB
:102E90000021004030B50346002528466D1C1C5C0F
:102EA00005E02046FFF7E6FF28466D1C1C5C002C61
:102EB000F7D130BD00100040101100400310000099
:102EC0000100000000100040000000000B020400A0
:102ED000000000000410004000000000070803018B
:102EE00000000000F42E0000000000204C00000054
:102EF000382B00000024F400000000000000000057
:102F000000000000000000000000000000000000C1
:102F100000000000000000000000000000000000B1
:102F200000000000000000000000000000000000A1
:102F300000000000E1100000A115000000000000EA
:04000005000000C136
:00000001FF
