:020000040000FA
:1000000008080020D5000000E7000000E90000001B
:1000100000000000000000000000000000000000E0
:10002000000000000000000000000000EB000000E5
:100030000000000000000000ED000000EF000000E4
:10004000F1000000F1000000F1000000F1000000EC
:10005000F100000000000000F1000000F1000000CD
:10006000F1000000F1000000F1000000F1000000CC
:10007000F1000000F1000000F1000000F1000000BC
:10008000F1000000F1000000F1000000F1000000AC
:10009000F1000000F1000000F1000000F10000009C
:1000A000F1000000F100000000000000000000006E
:1000B0000000000000000000000000000000000040
:1000C0000348854600F01CF8004800474502000040
:1000D00008080020074802680F210A43026006480A
:1000E000804706480047FEE7FEE7FEE7FEE7FEE73B
:1000F000FEE700002405004025010000C1000000CB
:10010000064C0125064E05E0E36807CC2B430C3C6A
:1001100098471034B442F7D3FFF7D6FF54030000DA
:100120006403000010B500F057F8002805D0074818
:1001300007494860C8130749886100F031F8002872
:1001400002D001200449886010BD0000DFFF07C015
:1001500000050040006C00400006004002E008C8B6
:10016000121F08C1002AFAD170477047002001E031
:1001700001C1121F002AFBD1704710B512200121C6
:100180000522120707231B02D2188300D15000BF9B
:10019000002303221221184600F062F810BD00006F
:1001A0000C48008CC0B2012812D10A48808C00078C
:1001B000000F00280CD10748806AF0210840402831
:1001C00006D10448C06A0840002801D101207047C8
:1001D0000020FCE7C00F00F01948008CC0B20128D5
:1001E0002CD11748808C0007000F002826D1144816
:1001F000806AF0210840002806D11148C06A0840F2
:10020000002801D1012070470D48806AF021084084
:10021000102806D10A48C06A0840002801D10120F0
:10022000F1E70748806AF0210840302806D10448E9
:10023000C06A0840002801D10120E4E70020E2E77D
:10024000C00F00F0FFF799FF00F05CF800F044F8F1
:1002500001200249086000BFFEE700000080004066
:1002600070B5002B0BD101248C40174DEC60174C5E
:10027000174D51263601AD198600AC510AE0012414
:100280008C40114DAC60134C114D51263601AD1907
:100290008600AC5100BF00BF00BF012485000C4E9A
:1002A000AD192C600C0203252C4315042C431D05AD
:1002B0002C43354651263601AD198600AC5100BF9E
:1002C00000BF00BF70BD000000050050031F02000A
:1002D00000600040031F0100064807490861074805
:1002E000074951221201891848600120024908601B
:1002F000704700004081004000F501400060004070
:1003000000F0014000200E490860012081070860CC
:1003100000BF0B4800680028FBD001200949C860D5
:100320000420094908610948074940310860002054
:10033000054948600220886001200549086070472F
:10034000000100400080004000850040400D030097
:100350000082004064030000000000200400000050
:080360005C0100000024F40020
:04000005000000C136
:00000001FF
