:020000040000FA
:1000000008080020F50000000701000009010000B9
:1000100000000000000000000000000000000000E0
:100020000000000000000000000000000B010000C4
:1000300000000000000000000D0100000F010000A2
:100040001101000011010000110100001101000068
:10005000110100000000000011010000110100006A
:100060001101000011010000110100001101000048
:100070001101000011010000110100001101000038
:100080001101000011010000110100001101000028
:100090001101000011010000110100001101000018
:1000A000110100001101000000000000000000002C
:1000B0000000000000000000000000000000000040
:1000C0000348854600F02CF80048004791020000E4
:1000D00008080020401E00BF00BF00BF00BF00BFD7
:1000E00000BF00BF00BF00BF00BF00BF00BFF1D115
:1000F00070470000074802680F210A430260064863
:10010000804706480047FEE7FEE7FEE7FEE7FEE71A
:10011000FEE700002405004045010000C10000008A
:10012000064C0125064E05E0E36807CC2B430C3C4A
:1001300098471034B442F7D3FFF7C6FFEC03000032
:10014000FC03000010B500F06DF8002805D007484A
:1001500007494860C8130749886100F047F800283C
:1001600002D001200449886010BD0000DFFF07C0F5
:1001700000050040006C00400006004002E008C896
:10018000121F08C1002AFAD170477047002001E011
:1001900001C1121F002AFBD17047000070B500207A
:1001A0000F49086001208107086000BF0C48006803
:1001B0000028FBD000F0D4F80A480B494860102012
:1001C0001121032208E093000524240707252D02AE
:1001D000641985006351401C8842F4D900BF70BD8A
:1001E0000001004000000020001500400C48008C79
:1001F000C0B2012812D10A48808C0007000F0028E5
:100200000CD10748806AF0210840402806D10448F4
:10021000C06A0840002801D1012070470020FCE797
:10022000C00F00F01948008CC0B201282CD117482B
:10023000808C0007000F002826D11448806AF02126
:100240000840002806D11148C06A0840002801D1A2
:10025000012070470D48806AF0210840102806D11F
:100260000A48C06A0840002801D10120F1E7074888
:10027000806AF0210840302806D10448C06A08404E
:10028000002801D10120E4E70020E2E7C00F00F0E0
:1002900008B5FFF783FF102000F058F8C7B211200F
:1002A00000F054F8C0B200903BE00026102000F0AF
:1002B0004DF8C4B2112000F049F8C5B2012F03D1A6
:1002C000002C01D1012006430098012803D1002D04
:1002D00001D10220064327460095124806700020EF
:1002E0001149086001201149086000BF0E480068EC
:1002F0000028FBD001200D49886000200A49C86011
:1003000000BF0948C0680028FBD0002006490861EA
:1003100001200649086100BF034800690028FBD09E
:1003200000BFC2E7000000200011004000100040A4
:1003300001B505E00098401E00900348FFF7CAFE93
:1003400000980028F6D108BDE703000001460348E5
:100350000069C840C007C00F70470000000500508A
:1003600010B500201949C860072088600120086185
:1003700017484862174888621748C86117480862DA
:100380000020C86201200863002048611448886189
:10039000022048630846406B8007800F022804D182
:1003A0001048C863104888630BE00848406B80071A
:1003B000800F012805D1FF200449C863FF200830C1
:1003C00088630320FFF7B4FF10BD00000015004054
:1003D000E7C2C3C4C8C7C6C5E7E7E7E7C2C2C200F1
:1003E00001010401FFFF000021100100FC030000D7
:1003F00000000020080000007C0100000000000058
:040400000024F400E0
:04000005000000C136
:00000001FF
